{
  "_format": "hh-sol-artifact-1",
  "contractName": "WavePortal",
  "sourceName": "contracts/WavePortal.sol",
  "abi": [
    {
      "anonymous": false,
      "inputs": [
        {
          "indexed": true,
          "internalType": "address",
          "name": "from",
          "type": "address"
        },
        {
          "indexed": false,
          "internalType": "string",
          "name": "message",
          "type": "string"
        },
        {
          "indexed": false,
          "internalType": "uint256",
          "name": "timestamp",
          "type": "uint256"
        }
      ],
      "name": "NewWave",
      "type": "event"
    },
    {
      "inputs": [],
      "name": "getAllWaves",
      "outputs": [
        {
          "components": [
            {
              "internalType": "address",
              "name": "waver",
              "type": "address"
            },
            {
              "internalType": "string",
              "name": "message",
              "type": "string"
            },
            {
              "internalType": "uint256",
              "name": "timestamp",
              "type": "uint256"
            }
          ],
          "internalType": "struct WavePortal.Wave[]",
          "name": "",
          "type": "tuple[]"
        }
      ],
      "stateMutability": "view",
      "type": "function"
    },
    {
      "inputs": [],
      "name": "getTotalWaves",
      "outputs": [
        {
          "internalType": "uint256",
          "name": "",
          "type": "uint256"
        }
      ],
      "stateMutability": "view",
      "type": "function"
    },
    {
      "inputs": [
        {
          "internalType": "string",
          "name": "_message",
          "type": "string"
        }
      ],
      "name": "wave",
      "outputs": [],
      "stateMutability": "nonpayable",
      "type": "function"
    },
    {
      "inputs": [
        {
          "internalType": "uint256",
          "name": "",
          "type": "uint256"
        }
      ],
      "name": "waves",
      "outputs": [
        {
          "internalType": "address",
          "name": "waver",
          "type": "address"
        },
        {
          "internalType": "string",
          "name": "message",
          "type": "string"
        },
        {
          "internalType": "uint256",
          "name": "timestamp",
          "type": "uint256"
        }
      ],
      "stateMutability": "view",
      "type": "function"
    }
  ],
  "bytecode": "0x608060405234801561001057600080fd5b50610c40806100206000396000f3fe608060405234801561001057600080fd5b506004361061004c5760003560e01c8063449d46c0146100515780639a2cdc081461006d578063bd43a9081461008b578063c781267a146100a9575b600080fd5b61006b6004803603810190610066919061058c565b6100db565b005b6100756101f3565b60405161008291906105ee565b60405180910390f35b6100936101ff565b6040516100a091906107ea565b60405180910390f35b6100c360048036038101906100be9190610838565b610350565b6040516100d2939291906108be565b60405180910390f35b600060405180606001604052803373ffffffffffffffffffffffffffffffffffffffff16815260200183815260200142815250908060018154018082558091505060019003906000526020600020906003020160009091909190915060008201518160000160006101000a81548173ffffffffffffffffffffffffffffffffffffffff021916908373ffffffffffffffffffffffffffffffffffffffff16021790555060208201518160010190816101939190610b08565b506040820151816002015550503373ffffffffffffffffffffffffffffffffffffffff167f6728ef66814a55b797863bf8ffcd954b19cbca4ed4f0e6cf04c980705fd82c3682426040516101e8929190610bda565b60405180910390a250565b60008080549050905090565b60606000805480602002602001604051908101604052809291908181526020016000905b8282101561034757838290600052602060002090600302016040518060600160405290816000820160009054906101000a900473ffffffffffffffffffffffffffffffffffffffff1673ffffffffffffffffffffffffffffffffffffffff1673ffffffffffffffffffffffffffffffffffffffff1681526020016001820180546102ac9061092b565b80601f01602080910402602001604051908101604052809291908181526020018280546102d89061092b565b80156103255780601f106102fa57610100808354040283529160200191610325565b820191906000526020600020905b81548152906001019060200180831161030857829003601f168201915b5050505050815260200160028201548152505081526020019060010190610223565b50505050905090565b6000818154811061036057600080fd5b90600052602060002090600302016000915090508060000160009054906101000a900473ffffffffffffffffffffffffffffffffffffffff16908060010180546103a99061092b565b80601f01602080910402602001604051908101604052809291908181526020018280546103d59061092b565b80156104225780601f106103f757610100808354040283529160200191610422565b820191906000526020600020905b81548152906001019060200180831161040557829003601f168201915b5050505050908060020154905083565b6000604051905090565b600080fd5b600080fd5b600080fd5b600080fd5b6000601f19601f8301169050919050565b7f4e487b7100000000000000000000000000000000000000000000000000000000600052604160045260246000fd5b61049982610450565b810181811067ffffffffffffffff821117156104b8576104b7610461565b5b80604052505050565b60006104cb610432565b90506104d78282610490565b919050565b600067ffffffffffffffff8211156104f7576104f6610461565b5b61050082610450565b9050602081019050919050565b82818337600083830152505050565b600061052f61052a846104dc565b6104c1565b90508281526020810184848401111561054b5761054a61044b565b5b61055684828561050d565b509392505050565b600082601f83011261057357610572610446565b5b813561058384826020860161051c565b91505092915050565b6000602082840312156105a2576105a161043c565b5b600082013567ffffffffffffffff8111156105c0576105bf610441565b5b6105cc8482850161055e565b91505092915050565b6000819050919050565b6105e8816105d5565b82525050565b600060208201905061060360008301846105df565b92915050565b600081519050919050565b600082825260208201905092915050565b6000819050602082019050919050565b600073ffffffffffffffffffffffffffffffffffffffff82169050919050565b600061066082610635565b9050919050565b61067081610655565b82525050565b600081519050919050565b600082825260208201905092915050565b60005b838110156106b0578082015181840152602081019050610695565b60008484015250505050565b60006106c782610676565b6106d18185610681565b93506106e1818560208601610692565b6106ea81610450565b840191505092915050565b6106fe816105d5565b82525050565b600060608301600083015161071c6000860182610667565b506020830151848203602086015261073482826106bc565b915050604083015161074960408601826106f5565b508091505092915050565b60006107608383610704565b905092915050565b6000602082019050919050565b600061078082610609565b61078a8185610614565b93508360208202850161079c85610625565b8060005b858110156107d857848403895281516107b98582610754565b94506107c483610768565b925060208a019950506001810190506107a0565b50829750879550505050505092915050565b600060208201905081810360008301526108048184610775565b905092915050565b610815816105d5565b811461082057600080fd5b50565b6000813590506108328161080c565b92915050565b60006020828403121561084e5761084d61043c565b5b600061085c84828501610823565b91505092915050565b61086e81610655565b82525050565b600082825260208201905092915050565b600061089082610676565b61089a8185610874565b93506108aa818560208601610692565b6108b381610450565b840191505092915050565b60006060820190506108d36000830186610865565b81810360208301526108e58185610885565b90506108f460408301846105df565b949350505050565b7f4e487b7100000000000000000000000000000000000000000000000000000000600052602260045260246000fd5b6000600282049050600182168061094357607f821691505b602082108103610956576109556108fc565b5b50919050565b60008190508160005260206000209050919050565b60006020601f8301049050919050565b600082821b905092915050565b6000600883026109be7fffffffffffffffffffffffffffffffffffffffffffffffffffffffffffffffff82610981565b6109c88683610981565b95508019841693508086168417925050509392505050565b6000819050919050565b6000610a05610a006109fb846105d5565b6109e0565b6105d5565b9050919050565b6000819050919050565b610a1f836109ea565b610a33610a2b82610a0c565b84845461098e565b825550505050565b600090565b610a48610a3b565b610a53818484610a16565b505050565b5b81811015610a7757610a6c600082610a40565b600181019050610a59565b5050565b601f821115610abc57610a8d8161095c565b610a9684610971565b81016020851015610aa5578190505b610ab9610ab185610971565b830182610a58565b50505b505050565b600082821c905092915050565b6000610adf60001984600802610ac1565b1980831691505092915050565b6000610af88383610ace565b9150826002028217905092915050565b610b1182610676565b67ffffffffffffffff811115610b2a57610b29610461565b5b610b34825461092b565b610b3f828285610a7b565b600060209050601f831160018114610b725760008415610b60578287015190505b610b6a8582610aec565b865550610bd2565b601f198416610b808661095c565b60005b82811015610ba857848901518255600182019150602085019450602081019050610b83565b86831015610bc55784890151610bc1601f891682610ace565b8355505b6001600288020188555050505b505050505050565b60006040820190508181036000830152610bf48185610885565b9050610c0360208301846105df565b939250505056fea264697066735822122058cbcc6e97a47f6c315cede5f5a7c4f86ba41e0d92cd6b2d17e77c049a002a9664736f6c63430008120033",
  "linkReferences": {},
  "deployedLinkReferences": {}
}